:1000000068C006C50DC219C5B1C387C32BC53FC59E
:1000100053C567C57BC58FC5A3C5B7C5CBC5120181
:10002000100102000008C016DA27000101020001D9
:100030001C0353006F006C006400650072006900CF
:100040006E006700490072006F006E0028037400A4
:10005000690063006B0065006C0074006F006E0047
:10006000400067006D00610069006C002E006300B5
:100070006F006D00040309047573625F736F6C6435
:100080006572696E5F69726F6E2076302E3100097D
:1000900002430002010000FA09040000010202010B
:1000A00000052400100104240202052406000105B5
:1000B00024010301070583030800FF09040100026E
:1000C0000A00000007050102080000070581020878
:1000D000000011241FBECFE5D2E0DEBFCDBF10E08F
:1000E000A0E6B0E0E6E7FDE002C005900D92AE3676
:1000F000B107D9F721E0AEE6B0E001C01D92A4350A
:10010000B207E1F7B8D535C67BCF1F93CF93DF9306
:10011000162FEA01288124FF05C0398128E823270A
:10012000298302C02AE52883212FFC01CE010296F3
:10013000DC0131913D9321501216DCF3612F59D12E
:100140001C5F1883DF91CF911F91089548E850E01C
:10015000DCCF44EB50E0D9CFCF93DF9360919A008E
:10016000635067FDB3C080919700CCE0D0E0C81B1E
:10017000D109C256DF4F80919600803118F4CE012C
:1001800094D39EC08D3209F08CC0683009F098C0BD
:1001900083EC80937D008AE5809361001092950046
:1001A0008881807619F0CE014FD368C09A81109271
:1001B00086008981811106C01092870026E830E010
:1001C00082E057C0853019F490939B004FC0863071
:1001D000A9F58B81813041F48EE190E090939900F4
:1001E0008093980082E126C0823019F4CE0117D3A3
:1001F00021C08330F1F4911108C084E790E090931E
:1002000099008093980084E015C0913041F48CE40B
:1002100090E0909399008093980088E20BC0923010
:1002200041F480E390E090939900809398008CE1F2
:1002300001C080E090E49093950020C0883079F070
:10024000893019F490939D0011C08A3059F08B3099
:1002500069F48BE4809389008093B50007C02DE991
:1002600030E002C026E830E081E003C026E830E05C
:1002700080E0309399002093980009C08F3F39F4B3
:10028000988197FD8E8190E89093950007C09F819B
:10029000911104C09E81981708F4892F8093600003
:1002A0000FC08091950087FF0BC0CE01F4D28F3F25
:1002B00021F48EE18093610003C0811110926000EF
:1002C00080919A00181614F410929A00809161009F
:1002D00084FF55C0809160008F3F09F450C0C82F43
:1002E000893008F0C8E08C1B8093600090917D00FD
:1002F00088E8892780937D00CC2309F44BC02091A6
:10030000950027FF08C06C2F8EE790E0BAD2C82F67
:10031000893078F523C0809198009091990026FF4C
:100320000AC0AEE7B0E0FC012C2F34913D9331962A
:100330002150D9F708C0DC01EEE7F0E02C2F3D9109
:1003400031932150E1F72FEF2C0F30E02F5F3F4F1B
:10035000820F931F90939900809398006C2F8EE7E3
:1003600090E047D0CC5FCC3041F08FEF80936000BD
:1003700004C08FEF80936000CEE1C093610084E100
:1003800096B3957069F48150D9F710929B00109242
:10039000940006C060E08EE790E02BD0C4E0E5CF8B
:1003A000DF91CF910895AA9A8BB780628BBFA8E89E
:1003B000B0E08BE411968C931197E4EBF0E081832D
:1003C0008AE58C9380830895A82FB92F80E090E070
:1003D00041E050EA609530E009C02D918227979561
:1003E000879510F084279527305EC8F36F5FA8F3D8
:1003F0000895EADF8D939D930895A6E088279927B5
:10040000AA9569F00197E1F3B099FCCFB09BFECFBC
:1004100081E09927A6B3019611F0A570D9F7089548
:10042000CF93CFB7CF93C395B09BE9F7B09B0BC0E9
:10043000B09B09C0B09B07C0B09B05C0B09B03C078
:10044000B09B01C0D8C00F92DF93C0919700DD2709
:10045000C256DF4F012EB09B03C0DF910F90E6CF55
:100460002F930F931F934F932FEF4F6F06B300FB04
:1004700020F95F933F9350E03BE065C016B301263F
:10048000502950FDC89556B3012700FB25F92F735D
:1004900006B3B1F05027102710FB26F906B2223020
:1004A000F0F000C016B3012700FB27F90126502900
:1004B00006B22430E8F54F77206816B30000F6CF77
:1004C00050274F7D206206B2102F000000C006B3F7
:1004D00000265029102710FB26F906B2E2CF4F7BE9
:1004E00006B3206400C0DACF01265029157006B289
:1004F00069F14E7F2160012F16B328C000265029D4
:100500004D7F06B22260102F29C0012650294B7F53
:1005100006B22460012F2DC016B301265029477F53
:100520002860000006B22EC04F7E06B3206130C0A6
:10053000422706B3499300265029102706B24FEFF1
:1005400010FB20F9297F16B379F2157059F10126B5
:10055000502906B2012700FB21F9237F06B371F26F
:10056000002650293150D0F006B2102710FB22F996
:10057000277E16B351F201265029012700FB06B24F
:1005800023F92F7C49F2000006B3102710FB24F951
:100590000026502906B22F7939F270CF10E21ABF27
:1005A00000271CC03B503195C31BD04010E21ABF3E
:1005B0000881033C21F10B3411F120919400198141
:1005C000110F1213EDCF4A81441F093669F10D3224
:1005D00011F0013E29F74F7009F0042F00939C00A1
:1005E0003F915F914F911F910F912F91DF910F904C
:1005F000CAB7C5FD18CFCF91CFBFCF911895209125
:100600009C00222369F310919A001123D1F5343014
:10061000D2F130939A0020939600109197003BE01E
:10062000311B309397002FC000919A0001304CF598
:100630000AE54F7049F43091610034FD25C0009304
:100640006100CDE7D0E024C0433049F0309188000C
:1006500034FD1AC000938800C9E8D0E019C0309179
:10066000B40034FD11C00093B400C5EBD0E010C05D
:10067000052710E000C021C0052710E0C89508BB81
:1006800014C03AE501C032ED032EC0E0D0E032E004
:1006900017B31560C09A08B317BB55E020E84FEFB9
:1006A00020FF052708BB279517951C3F28F700005A
:1006B0004552B0F720FF0527279508BB17951C3F2B
:1006C000B8F629913A9561F70A7F10919B00110FB6
:1006D00008BBC250D04011F01093940010E21ABF32
:1006E000016017B31A7F402F4A7F54E05A95F1F703
:1006F00008BB17BB48BB74CF87B3826187BBBB986D
:10070000C39AC49AC19A089584E083BF8BE080BFE6
:100710008FE58FBD86E089BF08951F920F920FB6B7
:100720000F9211248F939F93EF93FF9380916E000C
:10073000811102C0C498C19880916E00E091C100FF
:10074000F0E0E553FF4F9081981302C0C49AC19A1C
:1007500080916E008F5F80936E00FF91EF919F916B
:100760008F910F900FBE0F901F9018951F920F92B0
:100770000FB60F9211242F938F939F938FE58FBD08
:1007800086B3909153018095282F292790916D0071
:100790009223892F809580936D0090916C00922315
:1007A000982790936C008223892390915301982776
:1007B00090935301209153019091D1008223892B72
:1007C0008093D1009F918F912F910F900FBE0F902A
:1007D0001F901895F8949091D10089239091D100A1
:1007E00098279093D100789408959091530189238C
:1007F00008959091C300E92FF0E0ED52FF4F808300
:100800009F5F9F779093C30008958DE0F2DF8AE0A9
:10081000F0DF81E2EEDF8DE0ECDF8AE0EACFFC0181
:100820008381813049F48EE190E090939900809328
:10083000980080911E0008958FE890E090939900B1
:100840008093980083E40895FC019081892F80763D
:10085000803299F4818120EE280F223080F082329C
:1008600039F48091C000811103C082E08093C00000
:1008700097FD03C081E08093C20080E008958FEF70
:100880000895DC0197E0E4ECF0E001900D929A9578
:10089000E1F787E00895FC0197E0A4ECB0E0019057
:1008A0000D929A95E1F781E00895CF92DF92EF9251
:1008B000FF920F931F93CF93DF93162F2FEF209369
:1008C0009A00EC01EE24E39454E0F52E0991802F78
:1008D00090DF8091D00001327CF09FE9900F9A3137
:1008E00008F40052E82FF0E0ED58FF4F00838F5FCF
:1008F00087708093D0007EC0882309F47BC081304C
:1009000009F04AC0809173008734A9F08335A9F1BA
:100910008F3309F043C08DE06CDF8AE06ADFE8E7DF
:10092000F0E084916F019FEFC91AD90A882301F181
:1009300060DFF601F6CF8DE05CDF8AE05ADFE09100
:10094000C100F0E0E553FF4F808182958F708A30BF
:1009500008F0895F805D4DDFE091C100F0E0E55374
:10096000FF4F80818F708A3008F0895F805D41DFA2
:100970008DE03FDF8AE03DDF3BC080917B00882334
:1009800069F0F89480917C008093CF00F092C100D0
:10099000789410927B00ECCF823011F036DF28C0C3
:1009A0008091730090ED980F9731C0F726EC280FD7
:1009B0002730A0F33091740020ED230F273170F71A
:1009C00046EC430F473050F39A3010F099EC980FF3
:1009D000892F90E044E0880F991F4A95E1F72A306B
:1009E00010F029EC230F822B80937C00E0927B0097
:1009F0001092D000115009F069CF10929A00DF9147
:100A0000CF911F910F91FF90EF90DF90CF900895BD
:100A10001F920F920FB60F9211248F93EF93FF93B3
:100A2000EFE6F0E0808184608083FF91EF918F9109
:100A30000F900FBE0F901F9018951F920F920FB638
:100A40000F9211248F93EF93FF93EFE6F0E08081F4
:100A500080618083FF91EF918F910F900FBE0F9077
:100A60001F9018951F920F920FB60F9211248F931B
:100A7000EF93FF93EFE6F0E0808180688083FF9141
:100A8000EF918F910F900FBE0F901F9018951F92AE
:100A90000F920FB60F9211248F93EF93FF93EFE60F
:100AA000F0E0818181608183FF91EF918F910F90C0
:100AB0000FBE0F901F9018951F920F920FB60F92B6
:100AC00011248F93EF93FF93EFE6F0E08181826032
:100AD0008183FF91EF918F910F900FBE0F901F9028
:100AE00018951F920F920FB60F9211248F93EF93C8
:100AF000FF93EFE6F0E0818184608183FF91EF91C5
:100B00008F910F900FBE0F901F9018951F920F920C
:100B10000FB60F9211248F93EF93FF93EFE6F0E05F
:100B2000818188608183FF91EF918F910F900FBE3B
:100B30000F901F9018951F920F920FB60F921124CD
:100B40008F93EF93FF93EFE6F0E0818180618183E3
:100B5000FF91EF918F910F900FBE0F901F901895FE
:100B60001F920F920FB60F9211248F93EF93FF9362
:100B7000EFE6F0E0818180628183FF91EF918F91B8
:100B80000F900FBE0F901F9018951F920F920FB6E7
:100B90000F9211248F93EF93FF93EFE6F0E08181A2
:100BA00080648183FF91EF918F910F900FBE0F9022
:100BB0001F9018951F920F920FB60F9211248F93CA
:100BC000EF93FF93EFE6F0E0818180688183FF91EE
:100BD000EF918F910F900FBE0F901F901895CF93AC
:100BE000C2E09C2F969596959695E92FF0E0E159F5
:100BF000FF4F8081811106C0C92FCC0FCC0FCC0FC5
:100C0000C95F24C09C2F9770282F30E0092E02C0A6
:100C1000359527950A94E2F720FF18C021E030E0CF
:100C200001C0220F9A95EAF72095822380838CE5F4
:100C3000E0DD80E3DEDDCA3008F0C95F80E38C0FC1
:100C4000D8DD8DE0D6DD8AE0CF91D3CDCF5FC03146
:100C500040F2CF9108958AEF88BB85E087BB84E19D
:100C6000A895E2EBF1EF3197F1F700C00000815059
:100C7000B9F717BA08951092CB0088EC8093CC0096
:100C800080EE8093CD008FEF8093CE001092C10054
:100C90009EE088E10FB6F894A89581BD0FBE91BD86
:100CA000DADF81DB29DD30DD1092C0001092C20056
:100CB0001092D0001092C3001092D2007894D0E825
:100CC000A8954ADA8091880084FF29C0C091C300AA
:100CD0008091D200C81305C09091C200911104C048
:100CE0001EC0C81708F4CD2FC81BC93008F0C8E0D3
:100CF00090E06C2F8D529F4F29DA8091D2008C0F9B
:100D00008F778093D200C83039F491E02091C300EE
:100D1000281390E0892F01C080E08093C2005FDF3C
:100D20008091C000882399F09091B40094FF0FC087
:100D3000823021F468E082E690E003C062E08AE657
:100D400090E007DA8091C00081508093C00088E075
:100D500041DD882309F4B4CFF8948091C1008F5FFE
:100D6000843018F48093C10002C01092C1007894BE
:060D7000A7CFF894FFCFAD
:0E0D7600FF5AA1200000000002000300FFFF52
:00000001FF
